{"abi":[{"type":"constructor","inputs":[{"name":"_initialOwner","type":"address","internalType":"address"},{"name":"_feeUsdcTracker","type":"address","internalType":"address"},{"name":"_rewardRouter","type":"address","internalType":"address"}],"stateMutability":"nonpayable"},{"type":"function","name":"feeUsdcTracker","inputs":[],"outputs":[{"name":"","type":"address","internalType":"address"}],"stateMutability":"view"},{"type":"function","name":"owner","inputs":[],"outputs":[{"name":"","type":"address","internalType":"address"}],"stateMutability":"view"},{"type":"function","name":"renounceOwnership","inputs":[],"outputs":[],"stateMutability":"nonpayable"},{"type":"function","name":"rewardRouter","inputs":[],"outputs":[{"name":"","type":"address","internalType":"address"}],"stateMutability":"view"},{"type":"function","name":"setRewardRouterAddress","inputs":[{"name":"_rewardRouter","type":"address","internalType":"address"}],"outputs":[],"stateMutability":"nonpayable"},{"type":"function","name":"stakedUsdcTracker","inputs":[],"outputs":[{"name":"","type":"address","internalType":"address"}],"stateMutability":"view"},{"type":"function","name":"transferOwnership","inputs":[{"name":"newOwner","type":"address","internalType":"address"}],"outputs":[],"stateMutability":"nonpayable"},{"type":"function","name":"updateAmountsAndUnstake","inputs":[{"name":"_stakedAmount","type":"uint256","internalType":"uint256"},{"name":"_account","type":"address","internalType":"address"},{"name":"_amount","type":"uint256","internalType":"uint256"}],"outputs":[],"stateMutability":"nonpayable"},{"type":"function","name":"updateStakedAmountsEndDay","inputs":[{"name":"_stakedAmounts","type":"uint256[]","internalType":"uint256[]"},{"name":"_accounts","type":"address[]","internalType":"address[]"}],"outputs":[],"stateMutability":"nonpayable"},{"type":"function","name":"updateUserBalance","inputs":[{"name":"_account","type":"address","internalType":"address"},{"name":"_amount","type":"uint256","internalType":"uint256"}],"outputs":[],"stateMutability":"nonpayable"},{"type":"function","name":"withdrawEth","inputs":[],"outputs":[],"stateMutability":"nonpayable"},{"type":"event","name":"OwnershipTransferred","inputs":[{"name":"previousOwner","type":"address","indexed":true,"internalType":"address"},{"name":"newOwner","type":"address","indexed":true,"internalType":"address"}],"anonymous":false},{"type":"event","name":"SetUserBalanceEvent","inputs":[{"name":"_userBalance","type":"uint256","indexed":false,"internalType":"uint256"},{"name":"_callerAddress","type":"address","indexed":false,"internalType":"address"},{"name":"_amount","type":"uint256","indexed":false,"internalType":"uint256"}],"anonymous":false},{"type":"event","name":"UpdateUserBalanceEvent","inputs":[{"name":"callerAddress","type":"address","indexed":false,"internalType":"address"},{"name":"amount","type":"uint256","indexed":false,"internalType":"uint256"},{"name":"","type":"bool","indexed":false,"internalType":"bool"}],"anonymous":false},{"type":"error","name":"OwnableInvalidOwner","inputs":[{"name":"owner","type":"address","internalType":"address"}]},{"type":"error","name":"OwnableUnauthorizedAccount","inputs":[{"name":"account","type":"address","internalType":"address"}]}],"bytecode":{"object":"0x60806040526003805460ff60a01b1916600160a01b17905534801561002357600080fd5b506040516108b63803806108b683398101604081905261004291610119565b826001600160a01b03811661007157604051631e4fbdf760e01b81526000600482015260240160405180910390fd5b61007a816100ad565b50600180546001600160a01b039384166001600160a01b031991821617909155600380549290931691161790555061015c565b600080546001600160a01b038381166001600160a01b0319831681178455604051919092169283917f8be0079c531659141344cd1fd0a4f28419497f9722a3daafe3b4186f6b6457e09190a35050565b80516001600160a01b038116811461011457600080fd5b919050565b60008060006060848603121561012e57600080fd5b610137846100fd565b9250610145602085016100fd565b9150610153604085016100fd565b90509250925092565b61074b8061016b6000396000f3fe608060405234801561001057600080fd5b50600436106100a95760003560e01c8063755de87a11610071578063755de87a146101205780637eec638e146101335780638da5cb5b14610146578063a0ef91df14610157578063e9eae3261461015f578063f2fde38b1461017257600080fd5b806301d3bd15146100ae57806309700982146100c35780635a3bb989146100f25780635eba6e4714610105578063715018a614610118575b600080fd5b6100c16100bc36600461047a565b610185565b005b6002546100d6906001600160a01b031681565b6040516001600160a01b03909116815260200160405180910390f35b6003546100d6906001600160a01b031681565b6100c161011336600461049c565b6101af565b6100c1610222565b6001546100d6906001600160a01b031681565b6100c16101413660046105a3565b610236565b6000546001600160a01b03166100d6565b6100c16102a6565b6100c161016d36600461065c565b6102dd565b6100c161018036600461047a565b6103a1565b61018d6103e1565b600380546001600160a01b0319166001600160a01b0392909216919091179055565b6003546001600160a01b031633146101c657600080fd5b600354604080516001600160a01b038516815260208101849052600160a01b90920460ff161515908201527f6032c7bf4af6f5966c2198f50740ad089efe7a993ac5a32c770c36905be759aa9060600160405180910390a15050565b61022a6103e1565b610234600061040e565b565b61023e6103e1565b60015460405163429dcee560e11b81526001600160a01b039091169063853b9dca906102709084908690600401610691565b600060405180830381600087803b15801561028a57600080fd5b505af115801561029e573d6000803e3d6000fd5b505050505050565b6102ae6103e1565b60405133904780156108fc02916000818181858888f193505050501580156102da573d6000803e3d6000fd5b50565b6102e56103e1565b6001546040516349a3493f60e01b81526001600160a01b0384811660048301526024820186905260448201849052909116906349a3493f90606401600060405180830381600087803b15801561033a57600080fd5b505af115801561034e573d6000803e3d6000fd5b5050604080518681526001600160a01b03861660208201529081018490527f6e68ad968bba36f4860cfcc190620bd8f3ae87fe566a80a0c503e8bdf9858c619250606001905060405180910390a1505050565b6103a96103e1565b6001600160a01b0381166103d857604051631e4fbdf760e01b8152600060048201526024015b60405180910390fd5b6102da8161040e565b6000546001600160a01b031633146102345760405163118cdaa760e01b81523360048201526024016103cf565b600080546001600160a01b038381166001600160a01b0319831681178455604051919092169283917f8be0079c531659141344cd1fd0a4f28419497f9722a3daafe3b4186f6b6457e09190a35050565b80356001600160a01b038116811461047557600080fd5b919050565b60006020828403121561048c57600080fd5b6104958261045e565b9392505050565b600080604083850312156104af57600080fd5b6104b88361045e565b946020939093013593505050565b634e487b7160e01b600052604160045260246000fd5b604051601f8201601f1916810167ffffffffffffffff81118282101715610505576105056104c6565b604052919050565b600067ffffffffffffffff821115610527576105276104c6565b5060051b60200190565b600082601f83011261054257600080fd5b813560206105576105528361050d565b6104dc565b82815260059290921b8401810191818101908684111561057657600080fd5b8286015b848110156105985761058b8161045e565b835291830191830161057a565b509695505050505050565b600080604083850312156105b657600080fd5b823567ffffffffffffffff808211156105ce57600080fd5b818501915085601f8301126105e257600080fd5b813560206105f26105528361050d565b82815260059290921b8401810191818101908984111561061157600080fd5b948201945b8386101561062f57853582529482019490820190610616565b9650508601359250508082111561064557600080fd5b5061065285828601610531565b9150509250929050565b60008060006060848603121561067157600080fd5b833592506106816020850161045e565b9150604084013590509250925092565b604080825283519082018190526000906020906060840190828701845b828110156106d35781516001600160a01b0316845292840192908401906001016106ae565b5050508381038285015284518082528583019183019060005b81811015610708578351835292840192918401916001016106ec565b509097965050505050505056fea2646970667358221220c011ed6babdaa7f40ad478a6ee6a63bc70afefe132bfc759a64a1f3b7427120a64736f6c63430008140033","linkReferences":{}},"methodIdentifiers":{"feeUsdcTracker()":"755de87a","owner()":"8da5cb5b","renounceOwnership()":"715018a6","rewardRouter()":"5a3bb989","setRewardRouterAddress(address)":"01d3bd15","stakedUsdcTracker()":"09700982","transferOwnership(address)":"f2fde38b","updateAmountsAndUnstake(uint256,address,uint256)":"e9eae326","updateStakedAmountsEndDay(uint256[],address[])":"7eec638e","updateUserBalance(address,uint256)":"5eba6e47","withdrawEth()":"a0ef91df"},"id":13}